S00F000070726F6A6563742E737265631E
S11300000C942A000C9494020C94AB020C944700B8
S11300100C9447000C9447000C9447000C94BA02CB
S11300200C9447000C9447000C9447000C94470030
S11300300C9447000C9447000C9447000C94470020
S11300400C9447000C9447000C9447000C94470010
S11300500C94470011241FBECFE5D8E0DEBFCDBF0E
S113006010E0A0E6B0E0E4E9FFE002C005900D92E4
S1130070A436B107D9F720E0A4E6B0E001C01D9290
S1130080AE3CB207E1F70E94E8020C94C8070C9456
S11300900000672B09F09FC0009711F4D8980895C9
S11300A08130910511F4D99808958230910511F4A5
S11300B0DA9808958330910511F4DB98089584301B
S11300C0910511F4DC9808958530910511F4DD98BB
S11300D008958630910511F4DE98089587309105CE
S11300E011F4DF9808958A30910511F4C0980895A9
S11300F08B30910511F4C19808958C30910511F459
S1130100C29808958D30910511F4C39808958E30E6
S1130110910511F4C49808958F30910511F4C59890
S113012008958031910511F4C6980895813191059F
S113013011F4C79808958431910511F4A89808958D
S11301408531910511F4A99808958631910511F42A
S1130150AA9808958731910511F4AB9808958831D0
S1130160910511F4AC9808958931910511F4AD9875
S113017008958A31910511F4AE9808958B31910553
S113018011F4AF9808958E31910511F49098089563
S11301908F31910511F4919808958032910511F4ED
S11301A0929808958132910511F4939808958232BA
S11301B0910511F4949808958332910511F495985A
S11301C008958432910511F496980895859709F05D
S11301D09FC097980895009711F4D89A0895813094
S11301E0910511F4D99A08958230910511F4DA9A9F
S11301F008958330910511F4DB9A089584309105B4
S113020011F4DC9A08958530910511F4DD9A08956E
S11302108630910511F4DE9A08958730910511F422
S1130220DF9A08958A30910511F4C09A08958B30AD
S1130230910511F4C19A08958C30910511F4C29A74
S113024008958D30910511F4C39A08958E30910567
S113025011F4C49A08958F30910511F4C59A089544
S11302608031910511F4C69A08958131910511F4F4
S1130270C79A08958431910511F4A89A0895853197
S1130280910511F4A99A08958631910511F4AA9A59
S113029008958731910511F4AB9A08958831910539
S11302A011F4AC9A08958931910511F4AD9A089529
S11302B08A31910511F4AE9A08958B31910511F4A8
S11302C0AF9A08958E31910511F4909A08958F3163
S11302D0910511F4919A08958032910511F4929A3E
S11302E008958132910511F4939A0895823291050B
S11302F011F4949A08958332910511F4959A08950E
S11303008432910511F4969A0895859709F4979A81
S11303100895CF93C82F80FF07C061E070E082E2A8
S113032090E00E94490006C060E070E082E290E044
S11303300E944900C1FF07C061E070E083E290E0E1
S11303400E94490006C060E070E083E290E00E94F1
S11303504900C2FF07C061E070E084E290E00E94BF
S1130360490006C060E070E084E290E00E94490029
S1130370C3FF07C061E070E085E290E00E9449009D
S113038006C060E070E085E290E00E944900CF91F1
S11303900895CF93C82F60E070E08AE190E00E9456
S11303A049008C2F0E94890161E070E08BE190E0AC
S11303B00E9449008FE99FE00197F1F700C0000017
S11303C060E070E08BE190E00E9449008FE99FE0DB
S11303D00197F1F700C00000CF910895CF93C62F85
S11303E0813059F480E8860F82958F700E94C9018C
S11303F08C2F8F700E94C9010CC0823051F480ECA4
S1130400860F82958F700E94C9018C2F8F700E9475
S1130410C901CF91089580E00E9489012FEF89EFEF
S113042090E0215080409040E1F700C0000083E05C
S11304300E94C9018FE19EE40197F1F700C000001A
S113044083E00E94C9018FED9BEA0197F1F700C098
S1130450000083E00E94C90182E00E94C90182E099
S11304600E94C90188E00E94C90180E00E94C9017C
S11304708CE00E94C90180E00E94C90186E00E94CC
S1130480C9010895CF93C82F61E070E08AE190E03C
S11304900E9449008C2F82958F700E94890161E02F
S11304A070E08BE190E00E9449008FE99FE00197A2
S11304B0F1F700C0000060E070E08BE190E00E9482
S11304C049008FE99FE00197F1F700C000008C2FED
S11304D08F700E94890161E070E08BE190E00E94DE
S11304E049008FE99FE00197F1F700C0000060E048
S11304F070E08BE190E00E9449008FE99FE0019752
S1130500F1F700C00000CF910895CF93DF93EC0181
S11305108881882331F021960E94420289918111B9
S1130520FBCFDF91CF9108951F920F920FB60F92D8
S113053011248F939F938091680090916900019694
S113054090936900809368009F918F910F900FBEE4
S11305500F901F9018951F920F920FB60F921124AF
S11305608F938CB78C538CBF8F910F900FBE0F90CD
S11305701F9018951F920F920FB60F9211242F936C
S11305803F934F938F939F9380916800909169005C
S1130590909365008093640020916400309165001D
S11305A04CE3429FC001439F900D11249093670038
S11305B08093660010926900109268009F918F9159
S11305C04F913F912F910F900FBE0F901F90189550
S11305D0CF93DF93CDB7DEB7C456D1090FB6F894E5
S11305E0DEBF0FBECDBF80EF81BB8FEF84BB87BB67
S11305F00E940B0280E487B98AE886B918BA82E0BF
S113060085BB8EB58D608EBD82E783BF89B780615F
S113061089BF81EC93E09BBD8ABD86EE8CBF80ECE4
S11306208BBF8EEF85BF78940F2EF2E83F2EF02D0E
S11306306894222421F8412C0AE010E00F2EFBE6F6
S1130640AF2EF0E0BF2EF02D0F2EFEE25F2EF02D28
S11306506894662461F8772473940F2EF0E6CF2E05
S1130660F0E0DF2EF02DCE0101967C0190E497B9E5
S113067036B8369A3699FECF64B185B115B814B838
S1130680837070E0782B882777FD8095982F0E94DF
S1130690E00320E030E04AEF53E40E94440420E009
S11306A030E040E85AE30E9444040E94AD03FB0199
S11306B0222D342D02C0215031092115310519F4A0
S11306C0D5015C92F8CFC90186599F4F4C01CF01E7
S11306D0B8010E94CF04805DD40111968C9333231A
S11306E034F0CF01B8010E94CF04FB01E4CF809124
S11306F06600909167001816190614F478BA01C0C0
S113070068BA672D872D0E94EE018AE690E00E9468
S1130710850280916600909167009F938F93DF928A
S1130720CF92FF92EF920E94F704672D862D0E94CC
S1130730EE01C7010E9485028091660090916700D6
S11307400F900F900F900F900F900F908D37914056
S11307500CF48CCF86EE8CBF89CF04D06894B11191
S11307608DC0089570D088F09F5790F0B92F9927C5
S1130770B751A0F0D1F0660F771F881F991F1AF0A8
S1130780BA95C9F712C0B13081F077D0B1E00895BD
S113079074C0672F782F8827B85F39F0B93FCCF33E
S11307A0869577956795B395D9F73EF4909580959E
S11307B0709561957F4F8F4F9F4F0895E89409C0BE
S11307C097FB3EF490958095709561957F4F8F4F80
S11307D09F4F9923A9F0F92F96E9BB279395F69596
S11307E0879577956795B795F111F8CFFAF4BB0F14
S11307F011F460FF1BC06F5F7F4F8F4F9F4F16C078
S1130800882311F096E911C0772321F09EE8872F01
S1130810762F05C0662371F096E8862F70E060E0BD
S11308202AF09A95660F771F881FDAF7880F969536
S1130830879597F9089557FD9058440F551F59F01F
S11308405F3F71F04795880F97FB991F61F09F3FB9
S113085079F087950895121613061406551FF2CFE2
S11308604695F1DF08C0161617061806991FF1CF32
S113087086957105610508940895E894BB27662759
S11308807727CB0197F908950BD078C069D028F069
S11308906ED018F0952309F05AC05FC01124EECF32
S11308A0CADFA0F3959FD1F3950F50E0551F629FC7
S11308B0F001729FBB27F00DB11D639FAA27F00DB5
S11308C0B11DAA1F649F6627B00DA11D661F829FDC
S11308D02227B00DA11D621F739FB00DA11D621FC1
S11308E0839FA00D611D221F749F3327A00D611DDE
S11308F0231F849F600D211D822F762F6A2F1124C0
S11309009F5750408AF0E1F088234AF0EE0FFF1F12
S1130910BB1F661F771F881F91505040A9F79E3F49
S1130920510570F014C0AACF5F3FECF3983EDCF39E
S1130930869577956795B795F795E7959F5FC1F786
S1130940FE2B880F911D9695879597F9089597F931
S11309509F6780E870E060E008959FEF80EC089561
S113096000240A941616170618060906089500248A
S11309700A9412161306140605060895092E039404
S1130980000C11F4882352F0BB0F40F4BF2B11F478
S113099060FF04C06F5F7F4F8F4F9F4F089597FB99
S11309A0072E16F4009407D077FD09D00E94E304C3
S11309B007FC05D03EF4909581959F4F089570955E
S11309C061957F4F0895AA1BBB1B51E107C0AA1F65
S11309D0BB1FA617B70710F0A61BB70B881F991FDC
S11309E05A95A9F780959095BC01CD010895AEE084
S11309F0B0E0EDEFF4E00C949F070D891E8986E0CA
S1130A008C831A8309838FEF9FE79E838D83AE01C6
S1130A10475E5F4F6F89788DCE0101960E9419055C
S1130A20EF81F885E00FF11F10822E96E4E00C941C
S1130A30BB07ACE0B0E0EFE1F5E00C9491077C017A
S1130A406B018A01FC0117821682838181FFBDC17B
S1130A50CE0101964C01F7019381F60193FD859136
S1130A6093FF81916F01882309F4ABC1853239F476
S1130A7093FD859193FF81916F01853229F4B7012C
S1130A8090E00E940107E7CF512C312C20E0203266
S1130A90A0F48B3269F030F4803259F0833269F477
S1130AA020612CC08D3239F0803339F4216026C0A6
S1130AB02260246023C0286021C027FD27C030EDB8
S1130AC0380F3A3078F426FF06C0FAE05F9E300D06
S1130AD01124532E13C08AE0389E300D1124332E76
S1130AE020620CC08E3221F426FD6BC1206406C046
S1130AF08C3611F4206802C0883641F4F60193FD67
S1130B00859193FF81916F018111C1CF982F9F7DB2
S1130B109554933028F40C5F1F4FFFE3F9830DC005
S1130B20833631F0833771F0833509F05BC022C01E
S1130B30F801808189830E5F1F4F44244394512C14
S1130B40540115C03801F2E06F0E711CF801A08049
S1130B50B18026FF03C0652D70E002C06FEF7FEF08
S1130B60C5012C870E94F6062C0183012C852F7762
S1130B70222E17C03801F2E06F0E711CF801A0801C
S1130B80B18026FF03C0652D70E002C06FEF7FEFD8
S1130B90C5012C870E94EB062C012C852068222E8F
S1130BA0830123FC1BC0832D90E048165906B0F442
S1130BB0B70180E290E00E9401073A94F4CFF50176
S1130BC027FC859127FE81915F01B70190E00E9487
S1130BD0010731103A94F1E04F1A510841145104BD
S1130BE071F7E5C0843611F0893639F5F80127FF2D
S1130BF007C060817181828193810C5F1F4F08C09F
S1130C0060817181882777FD8095982F0E5F1F4F33
S1130C102F76B22E97FF09C09095809570956195B7
S1130C207F4F8F4F9F4F2068B22E2AE030E0A401FF
S1130C300E943307A82EA81844C0853729F42F7EB4
S1130C40B22E2AE030E025C0F22FF97FBF2E8F3676
S1130C50C1F018F4883579F0B4C0803719F08837BA
S1130C6021F0AFC02F2F2061B22EB4FE0DC08B2D0A
S1130C708460B82E09C024FF0AC09F2F9660B92E45
S1130C8006C028E030E005C020E130E002C020E1E9
S1130C9032E0F801B7FE07C06081718182819381DF
S1130CA00C5F1F4F06C06081718180E090E00E5F91
S1130CB01F4FA4010E943307A82EA818FB2DFF770D
S1130CC0BF2EB6FE0BC02B2D2E7FA51450F4B4FE00
S1130CD00AC0B2FC08C02B2D2E7E05C07A2C2B2D09
S1130CE003C07A2C01C0752C24FF0DC0FE01EA0D4F
S1130CF0F11D8081803311F4297E09C022FF06C0D2
S1130D007394739404C0822F867809F0739423FD3E
S1130D1013C020FF06C05A2C731418F4530C571830
S1130D20732C731468F4B70180E290E02C870E945E
S1130D30010773942C85F5CF731410F4371801C090
S1130D40312C24FF12C0B70180E390E02C870E946D
S1130D5001072C8522FF17C021FF03C088E590E01E
S1130D6002C088E790E0B7010CC0822F867859F062
S1130D7021FD02C080E201C08BE227FD8DE2B701B4
S1130D8090E00E940107A51438F4B70180E390E0D5
S1130D900E9401075A94F7CFAA94F401EA0DF11DB9
S1130DA08081B70190E00E940107A110F5CF3320A4
S1130DB009F451CEB70180E290E00E9401073A9411
S1130DC0F6CFF7018681978102C08FEF9FEF2C96B3
S1130DD0E2E10C94AD07FC010590615070400110F4
S1130DE0D8F7809590958E0F9F1F0895FC01615050
S1130DF0704001900110D8F7809590958E0F9F1F39
S1130E0008950F931F93CF93DF93182F092FEB01AE
S1130E108B8181FD03C08FEF9FEF20C082FF10C044
S1130E204E815F812C813D81421753077CF4E88118
S1130E30F9819F012F5F3F4F39832883108306C0B8
S1130E40E885F985812F0995892B29F72E813F8122
S1130E502F5F3F4F3F832E83812F902FDF91CF91C0
S1130E601F910F910895FA01AA27283051F12031DA
S1130E7081F1E8946F936E7F6E5F7F4F8F4F9F4F2A
S1130E80AF4FB1E03ED0B4E03CD0670F781F891F6C
S1130E909A1FA11D680F791F8A1F911DA11D6A0F3A
S1130EA0711D811D911DA11D20D009F468943F91ED
S1130EB02AE0269F11243019305D3193DEF6CF01EC
S1130EC00895462F4770405D4193B3E00FD0C9F7B2
S1130ED0F6CF462F4F70405D4A3318F0495D31FD1F
S1130EE04052419302D0A9F7EACFB4E0A695979572
S1130EF0879577956795BA95C9F700976105710548
S1130F0008959B01AC010A2E069457954795379591
S1130F102795BA95C9F7620F731F841F951FA01DEB
S1130F2008952F923F924F925F926F927F928F9289
S1130F309F92AF92BF92CF92DF92EF92FF920F9364
S1130F401F93CF93DF93CDB7DEB7CA1BDB0B0FB66E
S1130F50F894DEBF0FBECDBF09942A88398848882B
S1130F605F846E847D848C849B84AA84B984C884C1
S1130F70DF80EE80FD800C811B81AA81B981CE0FB8
S1130F80D11D0FB6F894DEBF0FBECDBFED0108959D
S1070F90F894FFCFFF
S1070F9425640000CC
S9030000FC
